S01C00004353313232415F46494E414C5F50524F4A4543542E737265635D
S1130000A4C00000BFC00000BDC00000BBC0000011
S1130010B9C00000B7C00000B5C00000B3C0000004
S1130020B1C00000AFC00000ADC00000ABC0000014
S1130030A9C0000058C10000A5C00000A3C0000072
S1130040A1C000009FC000009DC000009BC0000034
S113005099C0000097C0000095C0000093C0000044
S113006091C000008FC000008DC000008BC0000054
S113007089C0000087C0000085C0000083C0000064
S113008081C000007FC000007DC000009303CE0348
S1130090D50348044804D903E503F0034B041404CE
S11300A0240430043C04A903B60357045F04640425
S11300B0810489046E0470047804CD049304A004BC
S11300C09B04A504AA04B20407634236B79BD8A7CD
S11300D01A39685618AEBAAB558C1D3CB7CC576369
S11300E0BD6DEDFD753EF6177231BF000000803F17
S11300F008000000BE922449123EABAAAA2ABECD33
S1130100CCCC4C3E00000080BEABAAAAAA3E0000A4
S11301100000BF000000803F00000000000841789C
S1130120D3BB4387D1133D190E3CC3BD4282AD2BD3
S11301303E68EC8276BED98FE1A93E4C80EFFFBECB
S113014001C4FF7F3F000000000011241FBECFEF59
S1130150D0E4DEBFCDBF13E0A0E0B1E0E6EEF0E115
S113016000E00BBF02C007900D92A632B107D9F789
S113017023E0A6E2B3E001C01D92A338B207E1F781
S11301800DD4AFC73DCF813081F0E1ECF0E0808148
S113019088618083E2ECF0E080818660808383E381
S11301A08093C4001092C5000895E9ECF0E08081CA
S11301B088618083EAECF0E080818660808383E359
S11301C08093CC001092CD000895813041F0E0EC92
S11301D0F0E080818823ECF78091C6000895E8EC74
S11301E0F0E080818823ECF78091CE000895181602
S11301F019065CF00895000021503109E1F74F5FC2
S11302005F4F8417950719F4089540E050E027E004
S113021033E0F1CF2E9888B92F9A00002F9882E00E
S113022090E0E5CF089581E0F5CF089584E690E06D
S1130230DEDF88E3EFDF86E0EDDF8FE0EBDF81E0F8
S1130240E9DF8AE090E0D3CF08952E9A88B92F9AF7
S113025000002F9881E090E0CACF0895813118F40E
S11302608158D8CF08958155D5CF08950F931F9302
S1130270CF93DF93182FEB01D6DF8881882351F0C9
S113028001E0010F812FEADF8991DFDF102F8881E0
S11302908111F6CFDF91CF911F910F9108958BE0DB
S11302A0809381008DE790E090938900809388008B
S11302B082E080936F0010928500109284008091F8
S11302C0000190910101A0910201B091030180937A
S11302D02B0390932C03A0932D03B0932E038FB77D
S11302E080688FBF08951F920F920FB60F9211244A
S11302F08F939F93AF93BF9380912B0390912C0383
S1130300A0912D03B0912E030197A109B109809307
S11303102B0390932C03A0932D03B0932E03892BCE
S11303208A2B8B2B99F481E080932F038091000119
S113033090910101A0910201B091030180932B03DC
S113034090932C03A0932D03B0932E03BF91AF91F0
S11303509F918F910F900FBE0F901F9018956093EF
S11303600001709301018093020190930301609353
S11303702B0370932C0380932D0390932E030895E5
S11303809B01215031091216130684F4FC01E60F77
S1130390F71FDC0180E090E04C9152915D93408323
S11303A001962150310982179307B4F30895CF922F
S11303B0DF92EF92FF920F931F93CF93DF936B0122
S11303C08A01009791F0EB01E0E0F0E00F2EFAE0F3
S11303D0EF2EF12CF02D3196B70153D6805D899321
S11303E0862F972F0097B9F702C0E0E0F0E0E017FE
S11303F0F1075CF4EC0DFD1D9601200F311F80E325
S11304008193E217F307E1F701C08F01B801C60138
S1130410B7DFE601C00FD11F1882C801DF91CF9169
S11304201F910F91FF90EF90DF90CF9008952F923E
S11304303F924F925F926F927F928F929F92AF9270
S1130440BF92CF92DF92EF92FF920F931F93CF93BD
S1130450DF934B015C018A01E9018CD36B017C01C0
S113046040E050E0B801C601A2DF1C01209761F111
S1130470F801E80FF91F8EE28083BE010D2E000CF7
S1130480880B990BAAD39B01AC0160E070E080E279
S113049091E492D42B013C01B601DD0C880B990B3D
S11304A09CD39B01AC01C501B40197D22FEF221A52
S11304B0320A020D131DA30192011BD45BD3DC018C
S11304C0CB01AE01B80173DFDF91CF911F910F9182
S11304D0FF90EF90DF90CF90BF90AF909F908F9060
S11304E07F906F905F904F903F902F90089580E49D
S11304F080937C0087E880937A000895ECE7F0E02D
S11305009081987F8770892B8083EAE7F0E080816F
S113051080648083808186FDFDCF809178009091F6
S11305207900089564E071E081E0A0DE88EE93E054
S11305305EDE20E030E048E453E460914E037091C5
S11305404F038091500390915103ACD260933403D4
S113055070933503809336039093370322E030E0A1
S113056048E353E064DF68E373E081E07FDE88E81A
S113057093E13DCE089560E171E081E077DE88EE9D
S113058093E035DE80E0BADF9093820380938103A9
S1130590BC0180E090E01FD360933003709331037B
S11305A080933203909333032AE038E240EA5BE31A
S11305B0A0D39B01AC0112D26093680370936903CA
S11305C080936A0390936B0360934E0370934F037D
S11305D0809350039093510322E030E04CE653E0C3
S11305E026DF6CE673E081E041DE80ED97E0FFDD1D
S11305F099CF08956CE171E081E038DE8CED95E0EF
S1130600F6DD66E371E081E031DE8CED95E0EFDD4F
S1130610809180038130A1F467E471E027DE80E1FA
S113062097E2E5DD6BE571E081E020DE80E197E2B1
S1130630DEDD6FE671E081E019DE80E197E2D7DD6F
S113064080918003823051F563E871E081E00EDE31
S113065080E197E2CCDD67E971E081E007DE80E1CB
S113066097E2C5DD6BEA71E081E000DE80E197E2AC
S1130670BEDD67E471E081E0F9DD80E197E2B7DD9A
S11306806BE571E081E0F2DD80E197E2B0DD6FE6D9
S113069071E081E0EBDD80E197E2A9CD08958091DE
S11306A0C8008823E4F481E090DD809367038130FF
S11306B049F46FEB71E0DADD81E0809326038CED81
S11306C095E095DD80916703811109C065ED71E0C6
S11306D081E0CCDD109226038CED95E088CD089561
S11306E089B191E0382F317080FD90E090932A0316
S11306F089B1809582708093290399B19095907106
S11307009093280329B12095207220932703E09128
S113071052034E2F50E04F30510508F0BCC0FA018F
S1130720EA5BFF4FC1C4311104C081E080935203DE
S1130730C6C09111BCC0332309F4B9C0882309F49D
S11307401DC186E080935203CBC08DE08093520399
S113075001C1332309F4FEC08111FCC09111FAC018
S11307602111F8C08EE080935203FCC080912603CF
S1130770813049F094DF8EE0809352038091260308
S1130780813009F0EFC06CEE71E081E06FDD8CED3B
S113079095E02DDD82E08093520396C0332309F463
S11307A08EC082E0809352038FC085E08093520311
S11307B095C0992309F492C0332309F48FC08111A1
S11307C08DC083E0809352039CC0811189C0332380
S11307D009F486C0911184C087E08093520388C0D5
S11307E03111C8C08111D4C0911182C06BEF71E086
S11307F081E03CDD8CED95E0FADC89E080935203E6
S1130800809129038111BEC08EC08091280381117B
S113081042C06AE072E081E029DD8CED95E0E7DC1E
S11308208AE0809352038CC0332309F47CC009F41A
S11308307AC0811178C0911176C081E080938003E1
S11308408BE08093520377C0332351F0811108C0A9
S1130850911106C082E0809380038CE08093520360
S1130860C9DE82E08093520367E172E081E0FEDC3E
S11308708CED95E0BCDC0FC0BDDE82E080935203BA
S113088067E172E081E0F2DC8CED95E0B0DC03C05E
S1130890109252030CC0E09152038E2F90E08F30DF
S11308A0910508F07AC0FC01EB5AFF4FFDC369E3E0
S11308B072E081E0DBDC8BB1877F85B9089561E468
S11308C072E081E0D3CC089567E172E081E0CEDC90
S11308D08CED95E08CDC2B9A2A9A08954CCE0895E1
S11308E062E572E081E0C2DC88EE93E080CC08959A
S11308F066E672E081E0BADC80ED97E078DC7ACEDF
S1130900089561E872E081E0B1DC88E893E16FCC9E
S113091008952B982A9869E872E081E0A7DC80EDBD
S113092097E065CC089567E972E081E09FDC8CED87
S113093095E05DCC08956BEA72E081E097CC089570
S113094060EC72E081E092CC089564ED72E081E0A5
S11309508DCC089569EE72E081E088DC88E893E14B
S113096046CC08956AE073E081E080DC88E893E196
S11309703ECC0895882309F4BBCF0AC0222309F48E
S113098096CFE3CE80912A03882309F43ECFCBCFC0
S113099080912A038111ACCF38CF0895109252036D
S11309A08FEF87B916B884B913B81AB889B911B8D2
S11309B082B99DDD80E0E7DB81E0E5DB70DC68EE99
S11309C073E080E090E0CBDC31DC8ADE80912F03A1
S11309D08823E1F310922F03F8CF5058BB27AA279E
S11309E00ED04DC13ED130F043D120F031F49F3FC1
S11309F011F41EF433C10EF4E095E7FB29C1E92F8D
S1130A004FD180F3BA17620773078407950718F06C
S1130A1071F49EF567C10EF4E0950B2EBA2FA02D4C
S1130A200B01B90190010C01CA01A0011124FF2797
S1130A30591B99F0593F50F4503E68F11A16F04092
S1130A40A22F232F342F4427585FF3CF4695379591
S1130A502795A795F0405395C9F77EF41F16BA0B56
S1130A60620B730B840BBAF09150A1F0FF0FBB1F04
S1130A70661F771F881FC2F70EC0BA0F621F731F4D
S1130A80841F48F4879577956795B795F7959E3FAA
S1130A9008F0B3CF9395880F08F09927EE0F979538
S1130AA0879508950CD0EBC0E3D040F0DAD030F055
S1130AB021F45F3F19F0CCC0511115C1CFC0F0D063
S1130AC098F39923C9F35523B1F3951B550BBB2711
S1130AD0AA2762177307840738F09F5F5F4F220FBE
S1130AE0331F441FAA1FA9F333D00E2E3AF0E0E8B7
S1130AF030D091505040E695001CCAF729D0FE2F03
S1130B0027D0660F771F881FBB1F26173707480794
S1130B10AB07B0E809F0BB0B802DBF01FF2793584A
S1130B205F4F2AF09E3F510568F092C0DCC05F3FE2
S1130B30ECF3983EDCF3869577956795B795F79532
S1130B409F5FC9F7880F911D9695879597F908952A
S1130B50E1E0660F771F881FBB1F621773078407C6
S1130B60BA0720F0621B730B840BBA0BEE1F88F7D5
S1130B70E095089504D06894B111B5C0089598D053
S1130B8088F09F5790F0B92F9927B751A0F0D1F072
S1130B90660F771F881F991F1AF0BA95C9F712C0FC
S1130BA0B13081F09FD0B1E008959CC0672F782FB9
S1130BB08827B85F39F0B93FCCF386957795679568
S1130BC0B395D9F73EF490958095709561957F4FD4
S1130BD08F4F9F4F0895E89409C097FB3EF490957A
S1130BE08095709561957F4F8F4F9F4F9923A9F002
S1130BF0F92F96E9BB279395F69587957795679591
S1130C00B795F111F8CFFAF4BB0F11F460FF1BC0D4
S1130C106F5F7F4F8F4F9F4F16C0882311F096E967
S1130C2011C0772321F09EE8872F762F05C0662315
S1130C3071F096E8862F70E060E02AF09A95660FCE
S1130C40771F881FDAF7880F9695879597F9089587
S1130C5097F99F6780E870E060E008959FEF80EC6B
S1130C60089500240A94161617061806090608950E
S1130C7000240A9412161306140605060895092E74
S1130C800394000C11F4882352F0BB0F40F4BF2BE3
S1130C9011F460FF04C06F5F7F4F8F4F9F4F089523
S1130CA057FD9058440F551F59F05F3F71F0479519
S1130CB0880F97FB991F61F09F3F79F087950895FE
S1130CC0121613061406551FF2CF4695F1DF08C01D
S1130CD0161617061806991FF1CF8695710561053A
S1130CE008940895E894BB2766277727CB0197F9E2
S1130CF008950BD0C4CFB5DF28F0BADF18F09523E0
S1130D0009F0A6CFABCF1124EECFCADFA0F3959F95
S1130D10D1F3950F50E0551F629FF001729FBB27DE
S1130D20F00DB11D639FAA27F00DB11DAA1F649F8A
S1130D306627B00DA11D661F829F2227B00DA11D3D
S1130D40621F739FB00DA11D621F839FA00D611DC3
S1130D50221F749F3327A00D611D231F849F600DE4
S1130D60211D822F762F6A2F11249F5750408AF01D
S1130D70E1F088234AF0EE0FFF1FBB1F661F771FA9
S1130D80881F91505040A9F79E3F510570F060CFE5
S1130D90AACF5F3FECF3983EDCF386957795679591
S1130DA0B795F795E7959F5FC1F7FE2B880F911DC7
S1130DB09695879597F90895FA01EE0FFF1F3096DF
S1130DC02105310599F16115710561F48038BFE39E
S1130DD09B0749F168949038810561F08038BFEF32
S1130DE09B0741F0992342F5FF3FE10531052105B9
S1130DF011F1E8940894E795D901AA2329F4AB2FBB
S1130E00BE2FF85FD0F310C0FF5F70F4A695E0F733
S1130E10F73950F019F0FF3A38F49F779F930CD0CC
S1130E200F9007FC905808953EF018CF60E070E0F2
S1130E3080E89FE308954FE79F775F934F933F9335
S1130E402F939ED02F913F914F915F9152DF05C018
S1130E5019F40EF0FDCE46CF01CF2ADFC8F3963841
S1130E60C0F707F80F92E8942BE33AEA48EB5FE700
S1130E704EDF0F920F920F924DB75EB70F92C0D014
S1130E80E8ECF0E016D04F915F91EF91FF91E5957A
S1130E90EE1FFF1F49F0FE57E0684427EE0F441F82
S1130EA0FA95E1F74195550B32D00F9007FE26C015
S1130EB00895DF93CF931F930F93FF92EF92DF92E6
S1130EC07B018C01689405C0DA2EEF011EDFFE0160
S1130ED0E894A5912591359145915591AEF3EF0193
S1130EE08EDDFE019701A801DA9479F7DF90EF9087
S1130EF0FF900F911F91CF91DF9108959B01AC0159
S1130F0060E070E080E89FE3CDCDA2CEACC0D0DE3F
S1130F10E8F39923D9F3940F511DBBF3915050403A
S1130F2094F059F0882332F0660F771F881F915090
S1130F305040C1F79E3F510544F7880F911D969587
S1130F40879597F908955F3FACF0983E9CF0BB27D6
S1130F50869577956795B79508F4B1609395C1F731
S1130F60BB0F58F711F460FFE8CF6F5F7F4F8F4FCF
S1130F709F4FE3CFB8CE0EF076C070CE689468CEA3
S1130F8097DEC8F39923D1F3C6F3DF93CF931F936E
S1130F900F93FF92C92FDD2788232AF02197660F2C
S1130FA0771F881FDAF720E030E040E85FEB9FE32B
S1130FB0883920F0803E30F021968F770FDDE0EF06
S1130FC0F0E003C00BDDEDE1F1E073DF8B01BE0166
S1130FD0EC01FB2E6F5771097595771F880B990BE0
S1130FE0FCDD28E132E741E35FE38FDEAF2D9801BA
S1130FF0AE01FF900F911F91CF91DF9100DD3FCEA5
S1131000FA01DC01AA0FBB1F9B01AC01BF5728F4F6
S113101022273327442750781FC0B75188F4AB2FB9
S11310200024469537952795011CA395D2F30020FB
S113103069F0220F331F441FB395DAF30DD0CDCCE2
S113104061307105A0E88A07B94630F49B01AC0110
S11310506627772788279078309621F0208331837C
S11310604283538308959F3F31F0915020F4879534
S113107077956795B795880F911D9695879597F9FC
S1131080089597FB072E16F4009406D077FD08D038
S113109014D007FC05D03EF4909581959F4F089598
S11310A0709561957F4F0895EE0FFF1F0024001C7B
S11310B00BBE0790F691E02D0994AA1BBB1B51E1CE
S11310C007C0AA1FBB1FA617B70710F0A61BB70BB4
S11310D0881F991F5A95A9F780959095BC01CD0159
S10910E00895F894FFCF0F
S11310E60100000043757272656E74204E6F7700BE
S11310F6566F6C74616765204E6F77005075736820
S113110620436F72726573706F6E64696E672042F6
S11311167574746F6E0020302E3520202031202007
S11311262E2E2E6D696E005374617274696E67207B
S1131136696E202D333020736563005374617274B5
S1131146696E6720696E202D323020736563005303
S113115674617274696E6720696E202D3130207354
S11311666563005374617274696E6720696E202D1D
S1131176363020736563005374617274696E672038
S1131186696E202D35302073656300537461727463
S1131196696E6720696E202D3430207365630052B2
S11311A665636569766564204F4E3A424C7565748D
S11311B66F6F7468005265636569766564204F468F
S11311C6463A426C7565746F6F746800426C756557
S11311D6746F6F74683A31204F4E00496E736964B8
S11311E66520312F322053656300496E7369646547
S11311F62031204D494E00456E67696E6520537453
S1131206617274696E672E2E2E56726F6F6D2E2E56
S11312162E2E56726F6F6F6D00496E2049646C6591
S1131226005072657373696E6720427574746F6ECD
S1131236310053656C6563746564204175746F2071
S1131246537461727400486F77206C6F6E672074F4
S11312566F207761697420746F2053746172743FD0
S11312660050726573736564205368757474696E8F
S11312766720446F776E005072657373656420420D
S11312867574746F6E314175746F0052656C656167
S113129673656420427574746F6E314175746F00A2
S11312A65072657373656420427574746F6E32414F
S11312B675746F0052656C6561736564204275745C
S11312C6746F6E324175746F0053656C6563746533
S11312D66420426C7565746F6F7468204D6F646525
S11312E63A20427574746F6E340057616974696E7E
S11312F66720666F7220426C7565746F6F74682020
S1091306496E70757400CD
S9030000FC
