S0110000426C7565746F6F74682E737265635D
S113000045C0000060C000005EC000005CC000008D
S11300105AC0000058C0000056C0000054C0000080
S113002052C0000050C000004EC000004CC0000090
S11300304AC00000B3C0000046C0000044C0000035
S113004042C0000040C000003EC000003CC00000B0
S11300503AC0000038C0000036C0000034C00000C0
S113006032C0000030C000002EC000002CC00000D0
S11300702AC0000028C0000026C0000024C00000E0
S113008022C0000020C000001EC0000011241FBEBA
S1130090CFEFD0E4DEBFCDBF11E0A0E0B1E0EAEBEA
S11300A0F2E000E00BBF02C007900D92A430B1074C
S11300B0D9F721E0A4E0B1E001C01D92A930B20754
S11300C0E1F7B9D0F8C09CCF813081F0E1ECF0E0E9
S11300D0808188618083E2ECF0E0808186608083A7
S11300E083E38093C4001092C5000895E9ECF0E026
S11300F0808188618083EAECF0E08081866080837F
S113010083E38093CC001092CD000895613041F0D8
S1130110E0ECF0E0908195FFFDCF8093C600089558
S1130120E8ECF0E0908195FFFDCF8093CE00089538
S1130130813041F0E0ECF0E080818823ECF780919D
S1130140C6000895E8ECF0E080818823ECF7809104
S1130150CE0008958BE0809381008DE790E090932A
S113016089008093880082E080936F00109285005C
S1130170109284008091000190910101A0910201EC
S1130180B09103018093040190930501A0930601AB
S1130190B09307018FB780688FBF08951F920F92A5
S11301A00FB60F9211248F939F93AF93BF938091B7
S11301B0040190910501A0910601B09107010197F6
S11301C0A109B1098093040190930501A09306014C
S11301D0B0930701892B8A2B8B2B99F481E08093B0
S11301E008018091000190910101A0910201B09158
S11301F003018093040190930501A0930601B09339
S11302000701BF91AF919F918F910F900FBE0F90F7
S11302101F9018956093000170930101809302016F
S11302209093030160930401709305018093060188
S11302309093070108958FEF81B910B880E044DFEF
S113024081E042DF87DF60E47FE180E090E0E2DF8D
S1130250D1E000EC10E0CD2FC2B9809108018823D1
S1130260E1F31092080112B8809108018823E1F3A8
S113027010920801F8018081882374F7D5B980E0D1
S113028057DF813071F4D2B960E081E33FDF6C2F36
S11302908C2F3CDF809108018823E1F31092080140
S11302A0DBCF8111D9CF12B860E080E32FDF6D2F4F
S10D02B080E02CDFD1CFF894FFCFDB
S10702BA010000003B
S9030000FC
